:020000040000FA
:0400000080310E2815
:100008007E1480314E01161A0C1E0C288031E72010
:100018007E10090080311028DB3084008030850094
:100028001200F0001200F1001200F2001200F300BA
:100038001200F4001200F5008031FA208031A2008D
:100048008031FB20A300FB017E1040018031E128B4
:10005800980199019A013B309200E0309300FF30FB
:100068009400FB307E01CE00E030C3003330B8008E
:10007800C401B9010430CF000430BA00C501D00171
:100088003730BB00F030C600FF30D1003F30BC0035
:10009800F030C700FF30D2005511541553116030AD
:1000A8004001A4000030A5008031ED204E01161655
:1000B80003307E01920008007B08031D6A2875083A
:1000C800F7007408F60080318B2080317B03031D14
:1000D80074287308F7007208F60080318B2080318D
:1000E80002307B06031D7F287108F7007008F600B0
:1000F80080318B20803103307B06031D08004001CE
:100108002308F7002208F60080318B2008007708C2
:10011800F9007608F800F936F80CF936F80C780882
:100128004601950076080339F8000530F835FF3E9A
:10013800031D9A28783594000800400120082104FE
:100148000319AB2821088A0020080A0080310130F1
:10015800FA007A08FB0704307B020318FB017E01D2
:100168005511080080312C2080318031F2208031F7
:100178008031F72080318031D32080318031C52013
:1001880008000130450190008F019101F9308D0080
:100198008C014E010D13803045018E00080090300F
:1001A800460196003E309500403094000800EE3439
:1001B8000234F4340134FA3400348031B62080310A
:1001C8008B170B17E6287E01551D08008031A120EA
:1001D80008002508A1002408A00008005101910189
:1001E80093019201080050018C010800E7340334A0
:020000040001F9
:04000E00ED3FE73F9C
:04001400FF3FFF3F6C
:00000001FF
