:020000040000FA
:04000000803114280F
:100008007E1480314E01161E0A280B2812280C1E59
:100018000E280F2812288031EB2080317E1009002D
:100028008031162804308400813085001200F000E9
:100038001200F1001200F2001200F3001200F400A6
:100048001200F500813118218031A2008131192177
:100058008031A300FB017E1040018031F42840016B
:10006800980199019A013B309200E0309300FF30EB
:100078009400FB307E01CE00E030C3003330B8007E
:10008800C401B9010430CF000430BA00C501D00161
:100098003730BB00F030C600FF30D1003F30BC0025
:1000A800F030C700FF30D200551154155311693094
:1000B8004001A4000030A50081310A2180314E01A1
:1000C800161603307E01920008007B08031D6D2878
:1000D8006E2875287508F7007408F6008031B72077
:1000E80080317B03031D79287A2881287308F7005B
:1000F8007208F6008031B720803102307B06031D7C
:10010800862887288E287108F7007008F600803145
:10011800B720803103307B06031D932894289C2840
:1001280040012308F7002208F6008031B72080310B
:1001380008004001200821040319A328A428A9289D
:1001480021088A0020080A0080310130FA007A0864
:10015800FB0704307B02031CB228B328B428FB0138
:100168007E01551108007708F9007608F800F9367D
:10017800F80CF936F80C780846019500760803392A
:10018800F8000530F835FF3E031DC6287835940081
:100198000800803133208031813110218031813154
:1001A800152180318031FC2080318031DD20803183
:1001B80008000130450190008F019101F9308D0050
:1001C8008C014E010D13803045018E0008007E0120
:1001D800551DEF28F028F32880319D208031080034
:1001E8008031CD2080318B170B17F92880311428E6
:1001F8009030460196003E3095004030940008004B
:10020800EE340234F4340134FA3400344001250861
:10021800A1002408A0000800510191019301920156
:0C022800080050018C010800E73403348A
:020000040001F9
:04000E00ED3FE73F9C
:04001400FF3FFF3F6C
:00000001FF
